{
  "_format": "hh-sol-artifact-1",
  "contractName": "REDroNFT",
  "sourceName": "contracts/REDroNFT.sol",
  "abi": [
    {
      "inputs": [],
      "stateMutability": "nonpayable",
      "type": "constructor"
    },
    {
      "anonymous": false,
      "inputs": [
        {
          "indexed": true,
          "internalType": "address",
          "name": "owner",
          "type": "address"
        },
        {
          "indexed": true,
          "internalType": "address",
          "name": "approved",
          "type": "address"
        },
        {
          "indexed": true,
          "internalType": "uint256",
          "name": "tokenId",
          "type": "uint256"
        }
      ],
      "name": "Approval",
      "type": "event"
    },
    {
      "anonymous": false,
      "inputs": [
        {
          "indexed": true,
          "internalType": "address",
          "name": "owner",
          "type": "address"
        },
        {
          "indexed": true,
          "internalType": "address",
          "name": "operator",
          "type": "address"
        },
        {
          "indexed": false,
          "internalType": "bool",
          "name": "approved",
          "type": "bool"
        }
      ],
      "name": "ApprovalForAll",
      "type": "event"
    },
    {
      "anonymous": false,
      "inputs": [
        {
          "indexed": false,
          "internalType": "uint256",
          "name": "tokenId",
          "type": "uint256"
        },
        {
          "indexed": false,
          "internalType": "address",
          "name": "owner",
          "type": "address"
        }
      ],
      "name": "CuberiumMinted",
      "type": "event"
    },
    {
      "anonymous": false,
      "inputs": [
        {
          "indexed": true,
          "internalType": "address",
          "name": "previousOwner",
          "type": "address"
        },
        {
          "indexed": true,
          "internalType": "address",
          "name": "newOwner",
          "type": "address"
        }
      ],
      "name": "OwnershipTransferred",
      "type": "event"
    },
    {
      "anonymous": false,
      "inputs": [
        {
          "indexed": true,
          "internalType": "address",
          "name": "from",
          "type": "address"
        },
        {
          "indexed": true,
          "internalType": "address",
          "name": "to",
          "type": "address"
        },
        {
          "indexed": true,
          "internalType": "uint256",
          "name": "tokenId",
          "type": "uint256"
        }
      ],
      "name": "Transfer",
      "type": "event"
    },
    {
      "inputs": [],
      "name": "MAX_TOKENS",
      "outputs": [
        {
          "internalType": "uint256",
          "name": "",
          "type": "uint256"
        }
      ],
      "stateMutability": "view",
      "type": "function"
    },
    {
      "inputs": [
        {
          "internalType": "address[]",
          "name": "addresses",
          "type": "address[]"
        }
      ],
      "name": "addToPresaleList",
      "outputs": [],
      "stateMutability": "nonpayable",
      "type": "function"
    },
    {
      "inputs": [
        {
          "internalType": "address",
          "name": "to",
          "type": "address"
        },
        {
          "internalType": "uint256",
          "name": "tokenId",
          "type": "uint256"
        }
      ],
      "name": "approve",
      "outputs": [],
      "stateMutability": "nonpayable",
      "type": "function"
    },
    {
      "inputs": [
        {
          "internalType": "address",
          "name": "owner",
          "type": "address"
        }
      ],
      "name": "balanceOf",
      "outputs": [
        {
          "internalType": "uint256",
          "name": "",
          "type": "uint256"
        }
      ],
      "stateMutability": "view",
      "type": "function"
    },
    {
      "inputs": [],
      "name": "baseURI",
      "outputs": [
        {
          "internalType": "string",
          "name": "",
          "type": "string"
        }
      ],
      "stateMutability": "view",
      "type": "function"
    },
    {
      "inputs": [
        {
          "internalType": "uint256",
          "name": "tokenId",
          "type": "uint256"
        }
      ],
      "name": "getApproved",
      "outputs": [
        {
          "internalType": "address",
          "name": "",
          "type": "address"
        }
      ],
      "stateMutability": "view",
      "type": "function"
    },
    {
      "inputs": [
        {
          "internalType": "address",
          "name": "owner",
          "type": "address"
        },
        {
          "internalType": "address",
          "name": "operator",
          "type": "address"
        }
      ],
      "name": "isApprovedForAll",
      "outputs": [
        {
          "internalType": "bool",
          "name": "",
          "type": "bool"
        }
      ],
      "stateMutability": "view",
      "type": "function"
    },
    {
      "inputs": [],
      "name": "isRevealed",
      "outputs": [
        {
          "internalType": "bool",
          "name": "",
          "type": "bool"
        }
      ],
      "stateMutability": "view",
      "type": "function"
    },
    {
      "inputs": [],
      "name": "maxTokenPurchase",
      "outputs": [
        {
          "internalType": "uint256",
          "name": "",
          "type": "uint256"
        }
      ],
      "stateMutability": "view",
      "type": "function"
    },
    {
      "inputs": [
        {
          "internalType": "uint256",
          "name": "numberOfTokens",
          "type": "uint256"
        }
      ],
      "name": "mintCuberium",
      "outputs": [],
      "stateMutability": "payable",
      "type": "function"
    },
    {
      "inputs": [],
      "name": "name",
      "outputs": [
        {
          "internalType": "string",
          "name": "",
          "type": "string"
        }
      ],
      "stateMutability": "view",
      "type": "function"
    },
    {
      "inputs": [
        {
          "internalType": "address",
          "name": "addr",
          "type": "address"
        }
      ],
      "name": "onPreSaleList",
      "outputs": [
        {
          "internalType": "bool",
          "name": "",
          "type": "bool"
        }
      ],
      "stateMutability": "view",
      "type": "function"
    },
    {
      "inputs": [],
      "name": "owner",
      "outputs": [
        {
          "internalType": "address",
          "name": "",
          "type": "address"
        }
      ],
      "stateMutability": "view",
      "type": "function"
    },
    {
      "inputs": [
        {
          "internalType": "uint256",
          "name": "tokenId",
          "type": "uint256"
        }
      ],
      "name": "ownerOf",
      "outputs": [
        {
          "internalType": "address",
          "name": "",
          "type": "address"
        }
      ],
      "stateMutability": "view",
      "type": "function"
    },
    {
      "inputs": [
        {
          "internalType": "uint256",
          "name": "numberOfTokens",
          "type": "uint256"
        }
      ],
      "name": "presaleCuberium",
      "outputs": [],
      "stateMutability": "payable",
      "type": "function"
    },
    {
      "inputs": [],
      "name": "presaleIsActive",
      "outputs": [
        {
          "internalType": "bool",
          "name": "",
          "type": "bool"
        }
      ],
      "stateMutability": "view",
      "type": "function"
    },
    {
      "inputs": [],
      "name": "presaleMaxMint",
      "outputs": [
        {
          "internalType": "uint256",
          "name": "",
          "type": "uint256"
        }
      ],
      "stateMutability": "view",
      "type": "function"
    },
    {
      "inputs": [
        {
          "internalType": "address[]",
          "name": "addresses",
          "type": "address[]"
        }
      ],
      "name": "removeFromPresaleList",
      "outputs": [],
      "stateMutability": "nonpayable",
      "type": "function"
    },
    {
      "inputs": [],
      "name": "renounceOwnership",
      "outputs": [],
      "stateMutability": "nonpayable",
      "type": "function"
    },
    {
      "inputs": [],
      "name": "reveal",
      "outputs": [],
      "stateMutability": "nonpayable",
      "type": "function"
    },
    {
      "inputs": [
        {
          "internalType": "address",
          "name": "from",
          "type": "address"
        },
        {
          "internalType": "address",
          "name": "to",
          "type": "address"
        },
        {
          "internalType": "uint256",
          "name": "tokenId",
          "type": "uint256"
        }
      ],
      "name": "safeTransferFrom",
      "outputs": [],
      "stateMutability": "nonpayable",
      "type": "function"
    },
    {
      "inputs": [
        {
          "internalType": "address",
          "name": "from",
          "type": "address"
        },
        {
          "internalType": "address",
          "name": "to",
          "type": "address"
        },
        {
          "internalType": "uint256",
          "name": "tokenId",
          "type": "uint256"
        },
        {
          "internalType": "bytes",
          "name": "_data",
          "type": "bytes"
        }
      ],
      "name": "safeTransferFrom",
      "outputs": [],
      "stateMutability": "nonpayable",
      "type": "function"
    },
    {
      "inputs": [],
      "name": "saleIsActive",
      "outputs": [
        {
          "internalType": "bool",
          "name": "",
          "type": "bool"
        }
      ],
      "stateMutability": "view",
      "type": "function"
    },
    {
      "inputs": [
        {
          "internalType": "address",
          "name": "operator",
          "type": "address"
        },
        {
          "internalType": "bool",
          "name": "approved",
          "type": "bool"
        }
      ],
      "name": "setApprovalForAll",
      "outputs": [],
      "stateMutability": "nonpayable",
      "type": "function"
    },
    {
      "inputs": [
        {
          "internalType": "uint256",
          "name": "maxMint",
          "type": "uint256"
        }
      ],
      "name": "setPresaleMaxMint",
      "outputs": [],
      "stateMutability": "nonpayable",
      "type": "function"
    },
    {
      "inputs": [
        {
          "internalType": "bytes4",
          "name": "interfaceId",
          "type": "bytes4"
        }
      ],
      "name": "supportsInterface",
      "outputs": [
        {
          "internalType": "bool",
          "name": "",
          "type": "bool"
        }
      ],
      "stateMutability": "view",
      "type": "function"
    },
    {
      "inputs": [],
      "name": "symbol",
      "outputs": [
        {
          "internalType": "string",
          "name": "",
          "type": "string"
        }
      ],
      "stateMutability": "view",
      "type": "function"
    },
    {
      "inputs": [],
      "name": "togglePresaleState",
      "outputs": [],
      "stateMutability": "nonpayable",
      "type": "function"
    },
    {
      "inputs": [],
      "name": "toggleSaleState",
      "outputs": [],
      "stateMutability": "nonpayable",
      "type": "function"
    },
    {
      "inputs": [
        {
          "internalType": "uint256",
          "name": "index",
          "type": "uint256"
        }
      ],
      "name": "tokenByIndex",
      "outputs": [
        {
          "internalType": "uint256",
          "name": "",
          "type": "uint256"
        }
      ],
      "stateMutability": "view",
      "type": "function"
    },
    {
      "inputs": [
        {
          "internalType": "address",
          "name": "owner",
          "type": "address"
        },
        {
          "internalType": "uint256",
          "name": "index",
          "type": "uint256"
        }
      ],
      "name": "tokenOfOwnerByIndex",
      "outputs": [
        {
          "internalType": "uint256",
          "name": "",
          "type": "uint256"
        }
      ],
      "stateMutability": "view",
      "type": "function"
    },
    {
      "inputs": [],
      "name": "tokenPrice",
      "outputs": [
        {
          "internalType": "uint256",
          "name": "",
          "type": "uint256"
        }
      ],
      "stateMutability": "view",
      "type": "function"
    },
    {
      "inputs": [
        {
          "internalType": "uint256",
          "name": "tokenId",
          "type": "uint256"
        }
      ],
      "name": "tokenURI",
      "outputs": [
        {
          "internalType": "string",
          "name": "",
          "type": "string"
        }
      ],
      "stateMutability": "view",
      "type": "function"
    },
    {
      "inputs": [
        {
          "internalType": "address",
          "name": "_owner",
          "type": "address"
        }
      ],
      "name": "tokensOfOwner",
      "outputs": [
        {
          "internalType": "uint256[]",
          "name": "",
          "type": "uint256[]"
        }
      ],
      "stateMutability": "view",
      "type": "function"
    },
    {
      "inputs": [],
      "name": "totalSupply",
      "outputs": [
        {
          "internalType": "uint256",
          "name": "",
          "type": "uint256"
        }
      ],
      "stateMutability": "view",
      "type": "function"
    },
    {
      "inputs": [
        {
          "internalType": "address",
          "name": "from",
          "type": "address"
        },
        {
          "internalType": "address",
          "name": "to",
          "type": "address"
        },
        {
          "internalType": "uint256",
          "name": "tokenId",
          "type": "uint256"
        }
      ],
      "name": "transferFrom",
      "outputs": [],
      "stateMutability": "nonpayable",
      "type": "function"
    },
    {
      "inputs": [
        {
          "internalType": "address",
          "name": "newOwner",
          "type": "address"
        }
      ],
      "name": "transferOwnership",
      "outputs": [],
      "stateMutability": "nonpayable",
      "type": "function"
    },
    {
      "inputs": [],
      "name": "withdraw",
      "outputs": [],
      "stateMutability": "payable",
      "type": "function"
    }
  ],
  "bytecode": "0x6080604052604051806060016040528060368152602001620051be60369139600b9080519060200190620000359291906200022e565b506000600c60006101000a81548160ff0219169083151502179055506000600c60016101000a81548160ff0219169083151502179055506000600c60026101000a81548160ff0219169083151502179055506002600f553480156200009957600080fd5b506040518060400160405280600b81526020017f437562657269756d4e46540000000000000000000000000000000000000000008152506040518060400160405280600481526020017f6e4342520000000000000000000000000000000000000000000000000000000081525081600090805190602001906200011e9291906200022e565b508060019080519060200190620001379291906200022e565b5050506200015a6200014e6200016060201b60201c565b6200016860201b60201c565b62000343565b600033905090565b6000600660009054906101000a900473ffffffffffffffffffffffffffffffffffffffff16905081600660006101000a81548173ffffffffffffffffffffffffffffffffffffffff021916908373ffffffffffffffffffffffffffffffffffffffff1602179055508173ffffffffffffffffffffffffffffffffffffffff168173ffffffffffffffffffffffffffffffffffffffff167f8be0079c531659141344cd1fd0a4f28419497f9722a3daafe3b4186f6b6457e060405160405180910390a35050565b8280546200023c906200030d565b90600052602060002090601f016020900481019282620002605760008555620002ac565b82601f106200027b57805160ff1916838001178555620002ac565b82800160010185558215620002ac579182015b82811115620002ab5782518255916020019190600101906200028e565b5b509050620002bb9190620002bf565b5090565b5b80821115620002da576000816000905550600101620002c0565b5090565b7f4e487b7100000000000000000000000000000000000000000000000000000000600052602260045260246000fd5b600060028204905060018216806200032657607f821691505b602082108114156200033d576200033c620002de565b5b50919050565b614e6b80620003536000396000f3fe6080604052600436106102255760003560e01c80637204a3c911610123578063b179e060116100ab578063e985e9c51161006f578063e985e9c5146107cc578063eb8d244414610809578063f285e69e14610834578063f2fde38b1461084b578063f47c84c51461087457610225565b8063b179e060146106fd578063b88d4fde14610726578063c87b56dd1461074f578063daaeec861461078c578063df4305d2146107a357610225565b8063946ef42a116100f2578063946ef42a1461064b57806395d89b41146106765780639d5910f0146106a1578063a22cb465146106bd578063a475b5dd146106e657610225565b80637204a3c91461058f5780637ff9b596146105b85780638462151c146105e35780638da5cb5b1461062057610225565b80632f745c59116101b157806354214f691161017557806354214f69146104a85780636352211e146104d35780636c0360eb1461051057806370a082311461053b578063715018a61461057857610225565b80632f745c59146103d057806330f72cd41461040d5780633ccfd60b1461043857806342842e0e146104425780634f6ccce71461046b57610225565b806309aa3dcf116101f857806309aa3dcf146102f857806311576b791461032357806318160ddd1461036057806323b872dd1461038b5780632c8f7970146103b457610225565b806301ffc9a71461022a57806306fdde0314610267578063081812fc14610292578063095ea7b3146102cf575b600080fd5b34801561023657600080fd5b50610251600480360381019061024c91906133df565b61089f565b60405161025e9190613427565b60405180910390f35b34801561027357600080fd5b5061027c6108b1565b60405161028991906134db565b60405180910390f35b34801561029e57600080fd5b506102b960048036038101906102b49190613533565b610943565b6040516102c691906135a1565b60405180910390f35b3480156102db57600080fd5b506102f660048036038101906102f191906135e8565b6109c8565b005b34801561030457600080fd5b5061030d610ae0565b60405161031a9190613637565b60405180910390f35b34801561032f57600080fd5b5061034a60048036038101906103459190613652565b610ae5565b6040516103579190613427565b60405180910390f35b34801561036c57600080fd5b50610375610b3b565b6040516103829190613637565b60405180910390f35b34801561039757600080fd5b506103b260048036038101906103ad919061367f565b610b48565b005b6103ce60048036038101906103c99190613533565b610ba8565b005b3480156103dc57600080fd5b506103f760048036038101906103f291906135e8565b610f10565b6040516104049190613637565b60405180910390f35b34801561041957600080fd5b50610422610fb5565b60405161042f9190613427565b60405180910390f35b610440610fc8565b005b34801561044e57600080fd5b506104696004803603810190610464919061367f565b6110c4565b005b34801561047757600080fd5b50610492600480360381019061048d9190613533565b6110e4565b60405161049f9190613637565b60405180910390f35b3480156104b457600080fd5b506104bd611155565b6040516104ca9190613427565b60405180910390f35b3480156104df57600080fd5b506104fa60048036038101906104f59190613533565b611168565b60405161050791906135a1565b60405180910390f35b34801561051c57600080fd5b5061052561121a565b60405161053291906134db565b60405180910390f35b34801561054757600080fd5b50610562600480360381019061055d9190613652565b6112a8565b60405161056f9190613637565b60405180910390f35b34801561058457600080fd5b5061058d611360565b005b34801561059b57600080fd5b506105b660048036038101906105b19190613737565b6113e8565b005b3480156105c457600080fd5b506105cd6115a0565b6040516105da9190613637565b60405180910390f35b3480156105ef57600080fd5b5061060a60048036038101906106059190613652565b6115ab565b6040516106179190613842565b60405180910390f35b34801561062c57600080fd5b506106356116b5565b60405161064291906135a1565b60405180910390f35b34801561065757600080fd5b506106606116df565b60405161066d9190613637565b60405180910390f35b34801561068257600080fd5b5061068b6116e5565b60405161069891906134db565b60405180910390f35b6106bb60048036038101906106b69190613533565b611777565b005b3480156106c957600080fd5b506106e460048036038101906106df9190613890565b611952565b005b3480156106f257600080fd5b506106fb611ad3565b005b34801561070957600080fd5b50610724600480360381019061071f9190613737565b611b6c565b005b34801561073257600080fd5b5061074d60048036038101906107489190613a00565b611d24565b005b34801561075b57600080fd5b5061077660048036038101906107719190613533565b611d86565b60405161078391906134db565b60405180910390f35b34801561079857600080fd5b506107a1611e6b565b005b3480156107af57600080fd5b506107ca60048036038101906107c59190613533565b611f13565b005b3480156107d857600080fd5b506107f360048036038101906107ee9190613a83565b611f99565b6040516108009190613427565b60405180910390f35b34801561081557600080fd5b5061081e61202d565b60405161082b9190613427565b60405180910390f35b34801561084057600080fd5b50610849612040565b005b34801561085757600080fd5b50610872600480360381019061086d9190613652565b6120e8565b005b34801561088057600080fd5b506108896121e0565b6040516108969190613637565b60405180910390f35b60006108aa826121e5565b9050919050565b6060600080546108c090613af2565b80601f01602080910402602001604051908101604052809291908181526020018280546108ec90613af2565b80156109395780601f1061090e57610100808354040283529160200191610939565b820191906000526020600020905b81548152906001019060200180831161091c57829003601f168201915b5050505050905090565b600061094e8261225f565b61098d576040517f08c379a000000000000000000000000000000000000000000000000000000000815260040161098490613b96565b60405180910390fd5b6004600083815260200190815260200160002060009054906101000a900473ffffffffffffffffffffffffffffffffffffffff169050919050565b60006109d382611168565b90508073ffffffffffffffffffffffffffffffffffffffff168373ffffffffffffffffffffffffffffffffffffffff161415610a44576040517f08c379a0000000000000000000000000000000000000000000000000000000008152600401610a3b90613c28565b60405180910390fd5b8073ffffffffffffffffffffffffffffffffffffffff16610a636122cb565b73ffffffffffffffffffffffffffffffffffffffff161480610a925750610a9181610a8c6122cb565b611f99565b5b610ad1576040517f08c379a0000000000000000000000000000000000000000000000000000000008152600401610ac890613cba565b60405180910390fd5b610adb83836122d3565b505050565b600381565b6000600d60008373ffffffffffffffffffffffffffffffffffffffff1673ffffffffffffffffffffffffffffffffffffffff16815260200190815260200160002060009054906101000a900460ff169050919050565b6000600980549050905090565b610b59610b536122cb565b8261238c565b610b98576040517f08c379a0000000000000000000000000000000000000000000000000000000008152600401610b8f90613d4c565b60405180910390fd5b610ba383838361246a565b505050565b600c60019054906101000a900460ff16610bf7576040517f08c379a0000000000000000000000000000000000000000000000000000000008152600401610bee90613db8565b60405180910390fd5b600d60003373ffffffffffffffffffffffffffffffffffffffff1673ffffffffffffffffffffffffffffffffffffffff16815260200190815260200160002060009054906101000a900460ff16610c83576040517f08c379a0000000000000000000000000000000000000000000000000000000008152600401610c7a90613e24565b60405180910390fd5b6011610c9f82610c91610b3b565b6126c690919063ffffffff16565b1115610ce0576040517f08c379a0000000000000000000000000000000000000000000000000000000008152600401610cd790613eb6565b60405180910390fd5b600081118015610cf25750600f548111155b610d31576040517f08c379a0000000000000000000000000000000000000000000000000000000008152600401610d2890613f22565b60405180910390fd5b600f54610d8682600e60003373ffffffffffffffffffffffffffffffffffffffff1673ffffffffffffffffffffffffffffffffffffffff168152602001908152602001600020546126c690919063ffffffff16565b1115610dc7576040517f08c379a0000000000000000000000000000000000000000000000000000000008152600401610dbe90613f8e565b60405180910390fd5b610de18166071afd498d00006126dc90919063ffffffff16565b341015610e23576040517f08c379a0000000000000000000000000000000000000000000000000000000008152600401610e1a90613ffa565b60405180910390fd5b60005b81811015610f0c576000610e4b6000610e3d610b3b565b6126c690919063ffffffff16565b90506011610e57610b3b565b1015610ef8576001600e60003373ffffffffffffffffffffffffffffffffffffffff1673ffffffffffffffffffffffffffffffffffffffff1681526020019081526020016000206000828254610ead9190614049565b92505081905550610ebe33826126f2565b7f4187ea3145a7cafea72d94c0ad7a8a1adfafcb459b6f2f9e317550617432be268133604051610eef92919061409f565b60405180910390a15b508080610f04906140c8565b915050610e26565b5050565b6000610f1b836112a8565b8210610f5c576040517f08c379a0000000000000000000000000000000000000000000000000000000008152600401610f5390614183565b60405180910390fd5b600760008473ffffffffffffffffffffffffffffffffffffffff1673ffffffffffffffffffffffffffffffffffffffff168152602001908152602001600020600083815260200190815260200160002054905092915050565b600c60019054906101000a900460ff1681565b610fd06122cb565b73ffffffffffffffffffffffffffffffffffffffff16610fee6116b5565b73ffffffffffffffffffffffffffffffffffffffff1614611044576040517f08c379a000000000000000000000000000000000000000000000000000000000815260040161103b906141ef565b60405180910390fd5b600061104e6116b5565b73ffffffffffffffffffffffffffffffffffffffff164760405161107190614240565b60006040518083038185875af1925050503d80600081146110ae576040519150601f19603f3d011682016040523d82523d6000602084013e6110b3565b606091505b50509050806110c157600080fd5b50565b6110df83838360405180602001604052806000815250611d24565b505050565b60006110ee610b3b565b821061112f576040517f08c379a0000000000000000000000000000000000000000000000000000000008152600401611126906142c7565b60405180910390fd5b60098281548110611143576111426142e7565b5b90600052602060002001549050919050565b600c60029054906101000a900460ff1681565b6000806002600084815260200190815260200160002060009054906101000a900473ffffffffffffffffffffffffffffffffffffffff169050600073ffffffffffffffffffffffffffffffffffffffff168173ffffffffffffffffffffffffffffffffffffffff161415611211576040517f08c379a000000000000000000000000000000000000000000000000000000000815260040161120890614388565b60405180910390fd5b80915050919050565b600b805461122790613af2565b80601f016020809104026020016040519081016040528092919081815260200182805461125390613af2565b80156112a05780601f10611275576101008083540402835291602001916112a0565b820191906000526020600020905b81548152906001019060200180831161128357829003601f168201915b505050505081565b60008073ffffffffffffffffffffffffffffffffffffffff168273ffffffffffffffffffffffffffffffffffffffff161415611319576040517f08c379a00000000000000000000000000000000000000000000000000000000081526004016113109061441a565b60405180910390fd5b600360008373ffffffffffffffffffffffffffffffffffffffff1673ffffffffffffffffffffffffffffffffffffffff168152602001908152602001600020549050919050565b6113686122cb565b73ffffffffffffffffffffffffffffffffffffffff166113866116b5565b73ffffffffffffffffffffffffffffffffffffffff16146113dc576040517f08c379a00000000000000000000000000000000000000000000000000000000081526004016113d3906141ef565b60405180910390fd5b6113e66000612710565b565b6113f06122cb565b73ffffffffffffffffffffffffffffffffffffffff1661140e6116b5565b73ffffffffffffffffffffffffffffffffffffffff1614611464576040517f08c379a000000000000000000000000000000000000000000000000000000000815260040161145b906141ef565b60405180910390fd5b60005b8282905081101561159b57600073ffffffffffffffffffffffffffffffffffffffff1683838381811061149d5761149c6142e7565b5b90506020020160208101906114b29190613652565b73ffffffffffffffffffffffffffffffffffffffff161415611509576040517f08c379a000000000000000000000000000000000000000000000000000000000815260040161150090614486565b60405180910390fd5b6001600d6000858585818110611522576115216142e7565b5b90506020020160208101906115379190613652565b73ffffffffffffffffffffffffffffffffffffffff1673ffffffffffffffffffffffffffffffffffffffff16815260200190815260200160002060006101000a81548160ff0219169083151502179055508080611593906140c8565b915050611467565b505050565b66071afd498d000081565b606060006115b8836112a8565b9050600081141561161557600067ffffffffffffffff8111156115de576115dd6138d5565b5b60405190808252806020026020018201604052801561160c5781602001602082028036833780820191505090505b509150506116b0565b60008167ffffffffffffffff811115611631576116306138d5565b5b60405190808252806020026020018201604052801561165f5781602001602082028036833780820191505090505b50905060005b828110156116a9576116778582610f10565b82828151811061168a576116896142e7565b5b60200260200101818152505080806116a1906140c8565b915050611665565b8193505050505b919050565b6000600660009054906101000a900473ffffffffffffffffffffffffffffffffffffffff16905090565b600f5481565b6060600180546116f490613af2565b80601f016020809104026020016040519081016040528092919081815260200182805461172090613af2565b801561176d5780601f106117425761010080835404028352916020019161176d565b820191906000526020600020905b81548152906001019060200180831161175057829003601f168201915b5050505050905090565b600c60009054906101000a900460ff166117c6576040517f08c379a00000000000000000000000000000000000000000000000000000000081526004016117bd90614518565b60405180910390fd5b6000811180156117d7575060038111155b611816576040517f08c379a000000000000000000000000000000000000000000000000000000000815260040161180d906145aa565b60405180910390fd5b601161183282611824610b3b565b6126c690919063ffffffff16565b1115611873576040517f08c379a000000000000000000000000000000000000000000000000000000000815260040161186a9061463c565b60405180910390fd5b61188d8166071afd498d00006126dc90919063ffffffff16565b3410156118cf576040517f08c379a00000000000000000000000000000000000000000000000000000000081526004016118c690613ffa565b60405180910390fd5b60005b8181101561194e5760006118e4610b3b565b905060116118f0610b3b565b101561193a5761190033826126f2565b7f4187ea3145a7cafea72d94c0ad7a8a1adfafcb459b6f2f9e317550617432be26813360405161193192919061409f565b60405180910390a15b508080611946906140c8565b9150506118d2565b5050565b61195a6122cb565b73ffffffffffffffffffffffffffffffffffffffff168273ffffffffffffffffffffffffffffffffffffffff1614156119c8576040517f08c379a00000000000000000000000000000000000000000000000000000000081526004016119bf906146a8565b60405180910390fd5b80600560006119d56122cb565b73ffffffffffffffffffffffffffffffffffffffff1673ffffffffffffffffffffffffffffffffffffffff16815260200190815260200160002060008473ffffffffffffffffffffffffffffffffffffffff1673ffffffffffffffffffffffffffffffffffffffff16815260200190815260200160002060006101000a81548160ff0219169083151502179055508173ffffffffffffffffffffffffffffffffffffffff16611a826122cb565b73ffffffffffffffffffffffffffffffffffffffff167f17307eab39ab6107e8899845ad3d59bd9653f200f220920489ca2b5937696c3183604051611ac79190613427565b60405180910390a35050565b611adb6122cb565b73ffffffffffffffffffffffffffffffffffffffff16611af96116b5565b73ffffffffffffffffffffffffffffffffffffffff1614611b4f576040517f08c379a0000000000000000000000000000000000000000000000000000000008152600401611b46906141ef565b60405180910390fd5b6001600c60026101000a81548160ff021916908315150217905550565b611b746122cb565b73ffffffffffffffffffffffffffffffffffffffff16611b926116b5565b73ffffffffffffffffffffffffffffffffffffffff1614611be8576040517f08c379a0000000000000000000000000000000000000000000000000000000008152600401611bdf906141ef565b60405180910390fd5b60005b82829050811015611d1f57600073ffffffffffffffffffffffffffffffffffffffff16838383818110611c2157611c206142e7565b5b9050602002016020810190611c369190613652565b73ffffffffffffffffffffffffffffffffffffffff161415611c8d576040517f08c379a0000000000000000000000000000000000000000000000000000000008152600401611c8490614486565b60405180910390fd5b6000600d6000858585818110611ca657611ca56142e7565b5b9050602002016020810190611cbb9190613652565b73ffffffffffffffffffffffffffffffffffffffff1673ffffffffffffffffffffffffffffffffffffffff16815260200190815260200160002060006101000a81548160ff0219169083151502179055508080611d17906140c8565b915050611beb565b505050565b611d35611d2f6122cb565b8361238c565b611d74576040517f08c379a0000000000000000000000000000000000000000000000000000000008152600401611d6b90613d4c565b60405180910390fd5b611d80848484846127d6565b50505050565b6060611d918261225f565b611dd0576040517f08c379a0000000000000000000000000000000000000000000000000000000008152600401611dc79061473a565b60405180910390fd5b6000611dda612832565b905060001515600c60029054906101000a900460ff1615151415611e1957604051806080016040528060418152602001614df560419139915050611e66565b6000815111611e375760405180602001604052806000815250611e62565b80611e41846128c4565b604051602001611e529291906147e2565b6040516020818303038152906040525b9150505b919050565b611e736122cb565b73ffffffffffffffffffffffffffffffffffffffff16611e916116b5565b73ffffffffffffffffffffffffffffffffffffffff1614611ee7576040517f08c379a0000000000000000000000000000000000000000000000000000000008152600401611ede906141ef565b60405180910390fd5b600c60009054906101000a900460ff1615600c60006101000a81548160ff021916908315150217905550565b611f1b6122cb565b73ffffffffffffffffffffffffffffffffffffffff16611f396116b5565b73ffffffffffffffffffffffffffffffffffffffff1614611f8f576040517f08c379a0000000000000000000000000000000000000000000000000000000008152600401611f86906141ef565b60405180910390fd5b80600f8190555050565b6000600560008473ffffffffffffffffffffffffffffffffffffffff1673ffffffffffffffffffffffffffffffffffffffff16815260200190815260200160002060008373ffffffffffffffffffffffffffffffffffffffff1673ffffffffffffffffffffffffffffffffffffffff16815260200190815260200160002060009054906101000a900460ff16905092915050565b600c60009054906101000a900460ff1681565b6120486122cb565b73ffffffffffffffffffffffffffffffffffffffff166120666116b5565b73ffffffffffffffffffffffffffffffffffffffff16146120bc576040517f08c379a00000000000000000000000000000000000000000000000000000000081526004016120b3906141ef565b60405180910390fd5b600c60019054906101000a900460ff1615600c60016101000a81548160ff021916908315150217905550565b6120f06122cb565b73ffffffffffffffffffffffffffffffffffffffff1661210e6116b5565b73ffffffffffffffffffffffffffffffffffffffff1614612164576040517f08c379a000000000000000000000000000000000000000000000000000000000815260040161215b906141ef565b60405180910390fd5b600073ffffffffffffffffffffffffffffffffffffffff168173ffffffffffffffffffffffffffffffffffffffff1614156121d4576040517f08c379a00000000000000000000000000000000000000000000000000000000081526004016121cb90614883565b60405180910390fd5b6121dd81612710565b50565b601181565b60007f780e9d63000000000000000000000000000000000000000000000000000000007bffffffffffffffffffffffffffffffffffffffffffffffffffffffff1916827bffffffffffffffffffffffffffffffffffffffffffffffffffffffff19161480612258575061225782612a25565b5b9050919050565b60008073ffffffffffffffffffffffffffffffffffffffff166002600084815260200190815260200160002060009054906101000a900473ffffffffffffffffffffffffffffffffffffffff1673ffffffffffffffffffffffffffffffffffffffff1614159050919050565b600033905090565b816004600083815260200190815260200160002060006101000a81548173ffffffffffffffffffffffffffffffffffffffff021916908373ffffffffffffffffffffffffffffffffffffffff160217905550808273ffffffffffffffffffffffffffffffffffffffff1661234683611168565b73ffffffffffffffffffffffffffffffffffffffff167f8c5be1e5ebec7d5bd14f71427d1e84f3dd0314c0f7b2291e5b200ac8c7c3b92560405160405180910390a45050565b60006123978261225f565b6123d6576040517f08c379a00000000000000000000000000000000000000000000000000000000081526004016123cd90614915565b60405180910390fd5b60006123e183611168565b90508073ffffffffffffffffffffffffffffffffffffffff168473ffffffffffffffffffffffffffffffffffffffff16148061245057508373ffffffffffffffffffffffffffffffffffffffff1661243884610943565b73ffffffffffffffffffffffffffffffffffffffff16145b8061246157506124608185611f99565b5b91505092915050565b8273ffffffffffffffffffffffffffffffffffffffff1661248a82611168565b73ffffffffffffffffffffffffffffffffffffffff16146124e0576040517f08c379a00000000000000000000000000000000000000000000000000000000081526004016124d7906149a7565b60405180910390fd5b600073ffffffffffffffffffffffffffffffffffffffff168273ffffffffffffffffffffffffffffffffffffffff161415612550576040517f08c379a000000000000000000000000000000000000000000000000000000000815260040161254790614a39565b60405180910390fd5b61255b838383612b07565b6125666000826122d3565b6001600360008573ffffffffffffffffffffffffffffffffffffffff1673ffffffffffffffffffffffffffffffffffffffff16815260200190815260200160002060008282546125b69190614a59565b925050819055506001600360008473ffffffffffffffffffffffffffffffffffffffff1673ffffffffffffffffffffffffffffffffffffffff168152602001908152602001600020600082825461260d9190614049565b92505081905550816002600083815260200190815260200160002060006101000a81548173ffffffffffffffffffffffffffffffffffffffff021916908373ffffffffffffffffffffffffffffffffffffffff160217905550808273ffffffffffffffffffffffffffffffffffffffff168473ffffffffffffffffffffffffffffffffffffffff167fddf252ad1be2c89b69c2b068fc378daa952ba7f163c4a11628f55a4df523b3ef60405160405180910390a4505050565b600081836126d49190614049565b905092915050565b600081836126ea9190614a8d565b905092915050565b61270c828260405180602001604052806000815250612b17565b5050565b6000600660009054906101000a900473ffffffffffffffffffffffffffffffffffffffff16905081600660006101000a81548173ffffffffffffffffffffffffffffffffffffffff021916908373ffffffffffffffffffffffffffffffffffffffff1602179055508173ffffffffffffffffffffffffffffffffffffffff168173ffffffffffffffffffffffffffffffffffffffff167f8be0079c531659141344cd1fd0a4f28419497f9722a3daafe3b4186f6b6457e060405160405180910390a35050565b6127e184848461246a565b6127ed84848484612b72565b61282c576040517f08c379a000000000000000000000000000000000000000000000000000000000815260040161282390614b59565b60405180910390fd5b50505050565b6060600b805461284190613af2565b80601f016020809104026020016040519081016040528092919081815260200182805461286d90613af2565b80156128ba5780601f1061288f576101008083540402835291602001916128ba565b820191906000526020600020905b81548152906001019060200180831161289d57829003601f168201915b5050505050905090565b6060600082141561290c576040518060400160405280600181526020017f30000000000000000000000000000000000000000000000000000000000000008152509050612a20565b600082905060005b6000821461293e578080612927906140c8565b915050600a826129379190614ba8565b9150612914565b60008167ffffffffffffffff81111561295a576129596138d5565b5b6040519080825280601f01601f19166020018201604052801561298c5781602001600182028036833780820191505090505b5090505b60008514612a19576001826129a59190614a59565b9150600a856129b49190614bd9565b60306129c09190614049565b60f81b8183815181106129d6576129d56142e7565b5b60200101907effffffffffffffffffffffffffffffffffffffffffffffffffffffffffffff1916908160001a905350600a85612a129190614ba8565b9450612990565b8093505050505b919050565b60007f80ac58cd000000000000000000000000000000000000000000000000000000007bffffffffffffffffffffffffffffffffffffffffffffffffffffffff1916827bffffffffffffffffffffffffffffffffffffffffffffffffffffffff19161480612af057507f5b5e139f000000000000000000000000000000000000000000000000000000007bffffffffffffffffffffffffffffffffffffffffffffffffffffffff1916827bffffffffffffffffffffffffffffffffffffffffffffffffffffffff1916145b80612b005750612aff82612d09565b5b9050919050565b612b12838383612d73565b505050565b612b218383612e87565b612b2e6000848484612b72565b612b6d576040517f08c379a0000000000000000000000000000000000000000000000000000000008152600401612b6490614b59565b60405180910390fd5b505050565b6000612b938473ffffffffffffffffffffffffffffffffffffffff16613055565b15612cfc578373ffffffffffffffffffffffffffffffffffffffff1663150b7a02612bbc6122cb565b8786866040518563ffffffff1660e01b8152600401612bde9493929190614c5f565b602060405180830381600087803b158015612bf857600080fd5b505af1925050508015612c2957506040513d601f19601f82011682018060405250810190612c269190614cc0565b60015b612cac573d8060008114612c59576040519150601f19603f3d011682016040523d82523d6000602084013e612c5e565b606091505b50600081511415612ca4576040517f08c379a0000000000000000000000000000000000000000000000000000000008152600401612c9b90614b59565b60405180910390fd5b805181602001fd5b63150b7a0260e01b7bffffffffffffffffffffffffffffffffffffffffffffffffffffffff1916817bffffffffffffffffffffffffffffffffffffffffffffffffffffffff191614915050612d01565b600190505b949350505050565b60007f01ffc9a7000000000000000000000000000000000000000000000000000000007bffffffffffffffffffffffffffffffffffffffffffffffffffffffff1916827bffffffffffffffffffffffffffffffffffffffffffffffffffffffff1916149050919050565b612d7e838383613068565b600073ffffffffffffffffffffffffffffffffffffffff168373ffffffffffffffffffffffffffffffffffffffff161415612dc157612dbc8161306d565b612e00565b8173ffffffffffffffffffffffffffffffffffffffff168373ffffffffffffffffffffffffffffffffffffffff1614612dff57612dfe83826130b6565b5b5b600073ffffffffffffffffffffffffffffffffffffffff168273ffffffffffffffffffffffffffffffffffffffff161415612e4357612e3e81613223565b612e82565b8273ffffffffffffffffffffffffffffffffffffffff168273ffffffffffffffffffffffffffffffffffffffff1614612e8157612e8082826132f4565b5b5b505050565b600073ffffffffffffffffffffffffffffffffffffffff168273ffffffffffffffffffffffffffffffffffffffff161415612ef7576040517f08c379a0000000000000000000000000000000000000000000000000000000008152600401612eee90614d39565b60405180910390fd5b612f008161225f565b15612f40576040517f08c379a0000000000000000000000000000000000000000000000000000000008152600401612f3790614da5565b60405180910390fd5b612f4c60008383612b07565b6001600360008473ffffffffffffffffffffffffffffffffffffffff1673ffffffffffffffffffffffffffffffffffffffff1681526020019081526020016000206000828254612f9c9190614049565b92505081905550816002600083815260200190815260200160002060006101000a81548173ffffffffffffffffffffffffffffffffffffffff021916908373ffffffffffffffffffffffffffffffffffffffff160217905550808273ffffffffffffffffffffffffffffffffffffffff16600073ffffffffffffffffffffffffffffffffffffffff167fddf252ad1be2c89b69c2b068fc378daa952ba7f163c4a11628f55a4df523b3ef60405160405180910390a45050565b600080823b905060008111915050919050565b505050565b600980549050600a600083815260200190815260200160002081905550600981908060018154018082558091505060019003906000526020600020016000909190919091505550565b600060016130c3846112a8565b6130cd9190614a59565b90506000600860008481526020019081526020016000205490508181146131b2576000600760008673ffffffffffffffffffffffffffffffffffffffff1673ffffffffffffffffffffffffffffffffffffffff168152602001908152602001600020600084815260200190815260200160002054905080600760008773ffffffffffffffffffffffffffffffffffffffff1673ffffffffffffffffffffffffffffffffffffffff168152602001908152602001600020600084815260200190815260200160002081905550816008600083815260200190815260200160002081905550505b6008600084815260200190815260200160002060009055600760008573ffffffffffffffffffffffffffffffffffffffff1673ffffffffffffffffffffffffffffffffffffffff16815260200190815260200160002060008381526020019081526020016000206000905550505050565b600060016009805490506132379190614a59565b90506000600a6000848152602001908152602001600020549050600060098381548110613267576132666142e7565b5b906000526020600020015490508060098381548110613289576132886142e7565b5b906000526020600020018190555081600a600083815260200190815260200160002081905550600a60008581526020019081526020016000206000905560098054806132d8576132d7614dc5565b5b6001900381819060005260206000200160009055905550505050565b60006132ff836112a8565b905081600760008573ffffffffffffffffffffffffffffffffffffffff1673ffffffffffffffffffffffffffffffffffffffff168152602001908152602001600020600083815260200190815260200160002081905550806008600084815260200190815260200160002081905550505050565b6000604051905090565b600080fd5b600080fd5b60007fffffffff0000000000000000000000000000000000000000000000000000000082169050919050565b6133bc81613387565b81146133c757600080fd5b50565b6000813590506133d9816133b3565b92915050565b6000602082840312156133f5576133f461337d565b5b6000613403848285016133ca565b91505092915050565b60008115159050919050565b6134218161340c565b82525050565b600060208201905061343c6000830184613418565b92915050565b600081519050919050565b600082825260208201905092915050565b60005b8381101561347c578082015181840152602081019050613461565b8381111561348b576000848401525b50505050565b6000601f19601f8301169050919050565b60006134ad82613442565b6134b7818561344d565b93506134c781856020860161345e565b6134d081613491565b840191505092915050565b600060208201905081810360008301526134f581846134a2565b905092915050565b6000819050919050565b613510816134fd565b811461351b57600080fd5b50565b60008135905061352d81613507565b92915050565b6000602082840312156135495761354861337d565b5b60006135578482850161351e565b91505092915050565b600073ffffffffffffffffffffffffffffffffffffffff82169050919050565b600061358b82613560565b9050919050565b61359b81613580565b82525050565b60006020820190506135b66000830184613592565b92915050565b6135c581613580565b81146135d057600080fd5b50565b6000813590506135e2816135bc565b92915050565b600080604083850312156135ff576135fe61337d565b5b600061360d858286016135d3565b925050602061361e8582860161351e565b9150509250929050565b613631816134fd565b82525050565b600060208201905061364c6000830184613628565b92915050565b6000602082840312156136685761366761337d565b5b6000613676848285016135d3565b91505092915050565b6000806000606084860312156136985761369761337d565b5b60006136a6868287016135d3565b93505060206136b7868287016135d3565b92505060406136c88682870161351e565b9150509250925092565b600080fd5b600080fd5b600080fd5b60008083601f8401126136f7576136f66136d2565b5b8235905067ffffffffffffffff811115613714576137136136d7565b5b6020830191508360208202830111156137305761372f6136dc565b5b9250929050565b6000806020838503121561374e5761374d61337d565b5b600083013567ffffffffffffffff81111561376c5761376b613382565b5b613778858286016136e1565b92509250509250929050565b600081519050919050565b600082825260208201905092915050565b6000819050602082019050919050565b6137b9816134fd565b82525050565b60006137cb83836137b0565b60208301905092915050565b6000602082019050919050565b60006137ef82613784565b6137f9818561378f565b9350613804836137a0565b8060005b8381101561383557815161381c88826137bf565b9750613827836137d7565b925050600181019050613808565b5085935050505092915050565b6000602082019050818103600083015261385c81846137e4565b905092915050565b61386d8161340c565b811461387857600080fd5b50565b60008135905061388a81613864565b92915050565b600080604083850312156138a7576138a661337d565b5b60006138b5858286016135d3565b92505060206138c68582860161387b565b9150509250929050565b600080fd5b7f4e487b7100000000000000000000000000000000000000000000000000000000600052604160045260246000fd5b61390d82613491565b810181811067ffffffffffffffff8211171561392c5761392b6138d5565b5b80604052505050565b600061393f613373565b905061394b8282613904565b919050565b600067ffffffffffffffff82111561396b5761396a6138d5565b5b61397482613491565b9050602081019050919050565b82818337600083830152505050565b60006139a361399e84613950565b613935565b9050828152602081018484840111156139bf576139be6138d0565b5b6139ca848285613981565b509392505050565b600082601f8301126139e7576139e66136d2565b5b81356139f7848260208601613990565b91505092915050565b60008060008060808587031215613a1a57613a1961337d565b5b6000613a28878288016135d3565b9450506020613a39878288016135d3565b9350506040613a4a8782880161351e565b925050606085013567ffffffffffffffff811115613a6b57613a6a613382565b5b613a77878288016139d2565b91505092959194509250565b60008060408385031215613a9a57613a9961337d565b5b6000613aa8858286016135d3565b9250506020613ab9858286016135d3565b9150509250929050565b7f4e487b7100000000000000000000000000000000000000000000000000000000600052602260045260246000fd5b60006002820490506001821680613b0a57607f821691505b60208210811415613b1e57613b1d613ac3565b5b50919050565b7f4552433732313a20617070726f76656420717565727920666f72206e6f6e657860008201527f697374656e7420746f6b656e0000000000000000000000000000000000000000602082015250565b6000613b80602c8361344d565b9150613b8b82613b24565b604082019050919050565b60006020820190508181036000830152613baf81613b73565b9050919050565b7f4552433732313a20617070726f76616c20746f2063757272656e74206f776e6560008201527f7200000000000000000000000000000000000000000000000000000000000000602082015250565b6000613c1260218361344d565b9150613c1d82613bb6565b604082019050919050565b60006020820190508181036000830152613c4181613c05565b9050919050565b7f4552433732313a20617070726f76652063616c6c6572206973206e6f74206f7760008201527f6e6572206e6f7220617070726f76656420666f7220616c6c0000000000000000602082015250565b6000613ca460388361344d565b9150613caf82613c48565b604082019050919050565b60006020820190508181036000830152613cd381613c97565b9050919050565b7f4552433732313a207472616e736665722063616c6c6572206973206e6f74206f60008201527f776e6572206e6f7220617070726f766564000000000000000000000000000000602082015250565b6000613d3660318361344d565b9150613d4182613cda565b604082019050919050565b60006020820190508181036000830152613d6581613d29565b9050919050565b7f50726573616c65206973206e6f74206163746976650000000000000000000000600082015250565b6000613da260158361344d565b9150613dad82613d6c565b602082019050919050565b60006020820190508181036000830152613dd181613d95565b9050919050565b7f596f7520617265206e6f74206f6e207468652050726573616c65204c69737400600082015250565b6000613e0e601f8361344d565b9150613e1982613dd8565b602082019050919050565b60006020820190508181036000830152613e3d81613e01565b9050919050565b7f507572636861736520776f756c6420657863656564206d617820737570706c7960008201527f206f6620746f6b656e0000000000000000000000000000000000000000000000602082015250565b6000613ea060298361344d565b9150613eab82613e44565b604082019050919050565b60006020820190508181036000830152613ecf81613e93565b9050919050565b7f43616e6e6f742070757263686173652074686973206d616e7920746f6b656e73600082015250565b6000613f0c60208361344d565b9150613f1782613ed6565b602082019050919050565b60006020820190508181036000830152613f3b81613eff565b9050919050565b7f50757263686173652065786365656473206d617820616c6c6f77656400000000600082015250565b6000613f78601c8361344d565b9150613f8382613f42565b602082019050919050565b60006020820190508181036000830152613fa781613f6b565b9050919050565b7f45746865722076616c75652073656e74206973206e6f7420636f727265637400600082015250565b6000613fe4601f8361344d565b9150613fef82613fae565b602082019050919050565b6000602082019050818103600083015261401381613fd7565b9050919050565b7f4e487b7100000000000000000000000000000000000000000000000000000000600052601160045260246000fd5b6000614054826134fd565b915061405f836134fd565b9250827fffffffffffffffffffffffffffffffffffffffffffffffffffffffffffffffff038211156140945761409361401a565b5b828201905092915050565b60006040820190506140b46000830185613628565b6140c16020830184613592565b9392505050565b60006140d3826134fd565b91507fffffffffffffffffffffffffffffffffffffffffffffffffffffffffffffffff8214156141065761410561401a565b5b600182019050919050565b7f455243373231456e756d657261626c653a206f776e657220696e646578206f7560008201527f74206f6620626f756e6473000000000000000000000000000000000000000000602082015250565b600061416d602b8361344d565b915061417882614111565b604082019050919050565b6000602082019050818103600083015261419c81614160565b9050919050565b7f4f776e61626c653a2063616c6c6572206973206e6f7420746865206f776e6572600082015250565b60006141d960208361344d565b91506141e4826141a3565b602082019050919050565b60006020820190508181036000830152614208816141cc565b9050919050565b600081905092915050565b50565b600061422a60008361420f565b91506142358261421a565b600082019050919050565b600061424b8261421d565b9150819050919050565b7f455243373231456e756d657261626c653a20676c6f62616c20696e646578206f60008201527f7574206f6620626f756e64730000000000000000000000000000000000000000602082015250565b60006142b1602c8361344d565b91506142bc82614255565b604082019050919050565b600060208201905081810360008301526142e0816142a4565b9050919050565b7f4e487b7100000000000000000000000000000000000000000000000000000000600052603260045260246000fd5b7f4552433732313a206f776e657220717565727920666f72206e6f6e657869737460008201527f656e7420746f6b656e0000000000000000000000000000000000000000000000602082015250565b600061437260298361344d565b915061437d82614316565b604082019050919050565b600060208201905081810360008301526143a181614365565b9050919050565b7f4552433732313a2062616c616e636520717565727920666f7220746865207a6560008201527f726f206164647265737300000000000000000000000000000000000000000000602082015250565b6000614404602a8361344d565b915061440f826143a8565b604082019050919050565b60006020820190508181036000830152614433816143f7565b9050919050565b7f43616e27742061646420746865206e756c6c2061646472657373000000000000600082015250565b6000614470601a8361344d565b915061447b8261443a565b602082019050919050565b6000602082019050818103600083015261449f81614463565b9050919050565b7f53616c65206d7573742062652061637469766520746f206d696e7420546f6b6560008201527f6e00000000000000000000000000000000000000000000000000000000000000602082015250565b600061450260218361344d565b915061450d826144a6565b604082019050919050565b60006020820190508181036000830152614531816144f5565b9050919050565b7f43616e206f6e6c79206d696e74206f6e65206f72206d6f726520746f6b656e7360008201527f20617420612074696d6500000000000000000000000000000000000000000000602082015250565b6000614594602a8361344d565b915061459f82614538565b604082019050919050565b600060208201905081810360008301526145c381614587565b9050919050565b7f507572636861736520776f756c6420657863656564206d617820737570706c7960008201527f206f6620746f6b656e7300000000000000000000000000000000000000000000602082015250565b6000614626602a8361344d565b9150614631826145ca565b604082019050919050565b6000602082019050818103600083015261465581614619565b9050919050565b7f4552433732313a20617070726f766520746f2063616c6c657200000000000000600082015250565b600061469260198361344d565b915061469d8261465c565b602082019050919050565b600060208201905081810360008301526146c181614685565b9050919050565b7f4552433732314d657461646174613a2055524920717565727920666f72206e6f60008201527f6e6578697374656e7420746f6b656e0000000000000000000000000000000000602082015250565b6000614724602f8361344d565b915061472f826146c8565b604082019050919050565b6000602082019050818103600083015261475381614717565b9050919050565b600081905092915050565b600061477082613442565b61477a818561475a565b935061478a81856020860161345e565b80840191505092915050565b7f2e6a736f6e000000000000000000000000000000000000000000000000000000600082015250565b60006147cc60058361475a565b91506147d782614796565b600582019050919050565b60006147ee8285614765565b91506147fa8284614765565b9150614805826147bf565b91508190509392505050565b7f4f776e61626c653a206e6577206f776e657220697320746865207a65726f206160008201527f6464726573730000000000000000000000000000000000000000000000000000602082015250565b600061486d60268361344d565b915061487882614811565b604082019050919050565b6000602082019050818103600083015261489c81614860565b9050919050565b7f4552433732313a206f70657261746f7220717565727920666f72206e6f6e657860008201527f697374656e7420746f6b656e0000000000000000000000000000000000000000602082015250565b60006148ff602c8361344d565b915061490a826148a3565b604082019050919050565b6000602082019050818103600083015261492e816148f2565b9050919050565b7f4552433732313a207472616e73666572206f6620746f6b656e2074686174206960008201527f73206e6f74206f776e0000000000000000000000000000000000000000000000602082015250565b600061499160298361344d565b915061499c82614935565b604082019050919050565b600060208201905081810360008301526149c081614984565b9050919050565b7f4552433732313a207472616e7366657220746f20746865207a65726f2061646460008201527f7265737300000000000000000000000000000000000000000000000000000000602082015250565b6000614a2360248361344d565b9150614a2e826149c7565b604082019050919050565b60006020820190508181036000830152614a5281614a16565b9050919050565b6000614a64826134fd565b9150614a6f836134fd565b925082821015614a8257614a8161401a565b5b828203905092915050565b6000614a98826134fd565b9150614aa3836134fd565b9250817fffffffffffffffffffffffffffffffffffffffffffffffffffffffffffffffff0483118215151615614adc57614adb61401a565b5b828202905092915050565b7f4552433732313a207472616e7366657220746f206e6f6e20455243373231526560008201527f63656976657220696d706c656d656e7465720000000000000000000000000000602082015250565b6000614b4360328361344d565b9150614b4e82614ae7565b604082019050919050565b60006020820190508181036000830152614b7281614b36565b9050919050565b7f4e487b7100000000000000000000000000000000000000000000000000000000600052601260045260246000fd5b6000614bb3826134fd565b9150614bbe836134fd565b925082614bce57614bcd614b79565b5b828204905092915050565b6000614be4826134fd565b9150614bef836134fd565b925082614bff57614bfe614b79565b5b828206905092915050565b600081519050919050565b600082825260208201905092915050565b6000614c3182614c0a565b614c3b8185614c15565b9350614c4b81856020860161345e565b614c5481613491565b840191505092915050565b6000608082019050614c746000830187613592565b614c816020830186613592565b614c8e6040830185613628565b8181036060830152614ca08184614c26565b905095945050505050565b600081519050614cba816133b3565b92915050565b600060208284031215614cd657614cd561337d565b5b6000614ce484828501614cab565b91505092915050565b7f4552433732313a206d696e7420746f20746865207a65726f2061646472657373600082015250565b6000614d2360208361344d565b9150614d2e82614ced565b602082019050919050565b60006020820190508181036000830152614d5281614d16565b9050919050565b7f4552433732313a20746f6b656e20616c7265616479206d696e74656400000000600082015250565b6000614d8f601c8361344d565b9150614d9a82614d59565b602082019050919050565b60006020820190508181036000830152614dbe81614d82565b9050919050565b7f4e487b7100000000000000000000000000000000000000000000000000000000600052603160045260246000fdfe697066733a2f2f516d5947417033477a316d35556d466856345056525250594533484c31416d4377454b4650786e673439387666622f68696464656e2e6a736f6ea26469706673582212202d6d68239476370e4ea968e5492ad71d848314491762d082aeb402bcb194a24d64736f6c63430008090033697066733a2f2f516d654e637145744e536241417153514b35684b394777435577337a6d6634426663346e534c3664474d34596f352f",
  "linkReferences": {},
  "deployedLinkReferences": {}
}